:10000000A0200020510800004D0800004D0800000D
:1000100000000000000000000000000000000000E0
:100020000000000000000000000000004D0800007B
:1000300000000000000000004D0800004D08000016
:100040004D0800004D0800004D0800004D0800005C
:10005000150200004D0800004D0800004D0800008A
:100060004D0800004D0800004D0800004D0800003C
:100070004D080000CD020000DD020000ED0200008E
:10008000FD0200000D0300001D0300002D03000011
:100090003D0300004D0800004D0800004D08000021
:1000A0004D08000010B5064C2378002B07D1054BF6
:1000B000002B02D0044800E000BF0123237010BDD4
:1000C0000400002000000000DC090000084B10B50F
:1000D000002B03D00749084800E000BF0748036829
:1000E000002B00D110BD064B002BFBD09847F9E741
:1000F0000000000008000020DC090000DC0900000E
:1001000000000000044A137802210B431370537857
:100110005BB2002BFBDB70470018004000B583B0DA
:10012000124A936940210B43936101A900230B708C
:1001300003200F4B984703200E4B98470E4A137825
:1001400001210B43137053785BB2002BFBDB0B4B8D
:1001500019004031002204C39942FCD11022084BFF
:100160001A60084B984703B000BDC0460004004029
:10017000290700009D060000001800403C000020F8
:1001800000E100E00501000000230360436001225C
:100190000272427283720233C3727047F0B583B049
:1001A00005000C0001A900234B70CB7023790B7064
:1001B000237A8B702078154B984700201F2D00D88C
:1001C000134807222A409200E77AA37A002B01D035
:1001D00008231F43EB089B00C31899690F2696401C
:1001E000B14397403A000A439A61637A002B06D1E3
:1001F00043690122AA409343436103B0F0BD4269C1
:100200000123AB4013434361F7E7C046ED0700000D
:100210000018004070B50022104B1A7000231049DE
:100220001F25104E0D4C0AE00D4908E023780133DC
:10023000DBB223700F2B10D800211F2BF4D928001C
:1002400018400122824008691042EFD00A619B00E9
:100250009B59002BEAD09847E8E770BD7C0000204E
:10026000001800403C00002070B58000164BC458B8
:1002700023689D7B227E637E13401D40EB0706D4DE
:10028000AB070BD4EB0610D4AB0615D470BD200021
:10029000A3689847012322689373F1E72000E3687D
:1002A0009847022322689373ECE72000236998475C
:1002B000102322689373E7E7200063699847236857
:1002C00020229A73E2E7C0468000002010B500208B
:1002D000014B984710BDC0466902000010B50120CF
:1002E000014B984710BDC0466902000010B50220BE
:1002F000014B984710BDC0466902000010B50320AD
:10030000014B984710BDC0466902000010B504209B
:10031000014B984710BDC0466902000010B505208A
:10032000014B984710BDC0466902000010B5062079
:10033000014B984710BDC0466902000010B5072068
:10034000014B984710BDC046690200000C4B1B686A
:10035000002B06D1EFF31083002B07D00022094BAE
:100360001A70074A136801331360704772B6BFF3FF
:100370005F8F0022044B1A700132024B1A70F0E7B3
:10038000200000202400002000000020084B1A68F4
:10039000013A1A601B68002B09D1064B1B78002B11
:1003A00005D00122044B1A70BFF35F8F62B670470D
:1003B000200000202400002000000020F0B583B0C1
:1003C00001AC012565700027A770257021000E2063
:1003D000064EB0478022D201054B9A6127706570A6
:1003E00021000F20B04703B0F0BDC046F503000068
:1003F0000044004100B583B001AB80221A700A7836
:100400005A704A789A708A78DA701900014B9847C6
:1004100003B000BDED07000070B50C490B6A04780D
:10042000857840780122104080014026B343034381
:100430002A40D20180208343134303222240120228
:100440000348034013430B6270BDC04600080040E0
:10045000FFFCFFFF072803D880001E4B1B589F4658
:10046000172036E01C4A136A02210B431362002056
:100470002FE0194A936902210B439361002028E081
:10048000154A138A02210B431382002021E0124AED
:10049000938A02210B43938200201AE00F4B1A68C3
:1004A00002210A431A601B680D4A13400A4A9384CA
:1004B00011001022CB681A42FCD0084A9168064B02
:1004C000D96251689962126892B29A84002000E061
:1004D000002070479C090000000800402800002010
:1004E0007FFF000030B585B0C222D2001A4B9A605F
:1004F0001A4A53681E218B43536001236A461370C6
:100500000024174DE0B26946A84701341C2CF9D1EC
:1005100003A800244470012585700470114B98478E
:100520000620114B9847114B9847114B1C725C7277
:100530009C72DC7201956B465C7006236A461370F0
:1005400014725472694600200A4B984700200A4BE7
:10055000984705B030BDC04600080040004000414B
:100560002907000019040000550400007D05000063
:1005700000040040A105000059060000064A9369E6
:1005800008210B4393610122044B1A7019000B7868
:100590001342FCD17047C04600040040000C0040EC
:1005A00070B5060004000D782D0205434B78002B32
:1005B00002D08023DB021D434B7A002B02D0802324
:1005C0001B031D434868012810D9431E184234D12B
:1005D000022830D90223002201325B009842FBD866
:1005E00012023243140080235B031D430B7A002B5D
:1005F00002D080239B031D43134A53785BB2002B28
:10060000FBDB124B9847124B1E700F4A53785BB2BC
:10061000002BFBDB0C4B9C601A0053785BB2002B69
:10062000FBDB094A5368802149020B401D4355609A
:10063000084B984770BD0022D2E704023443802360
:100640009B021D43D2E7C046000C00404D03000052
:10065000080C00408D03000010B504000B4A5378CD
:100660005BB2002BFBDB0A4B98470A4B1C70074A16
:1006700053785BB2002BFBDB044A516880235B029A
:100680000B435360044B984710BDC046000C00401C
:100690004D030000040C00408D03000010B5040061
:1006A000064B9847064B1C70064A53888021C901A7
:1006B0000B435380044B984710BDC0464D030000C8
:1006C000020C0040000C00408D03000010B5040037
:1006D0000F4B98470F4B1C700F4A53881B05180F80
:1006E00053880E490B40538053880D490B4053806B
:1006F00011008022D2014B881342FCD106494A885E
:1007000003020648024013434B80064B984710BD36
:100710004D030000020C0040000C0040FFF0FFFF02
:10072000FFBFFFFF8D03000010B50C7824020443C7
:10073000024B9847A4B2024B5C8010BDCD0600006E
:10074000000C004030B5D378002B35D11378802BC6
:1007500029D01B0680246402234354780225AC432D
:1007600006D19478002C20D18024A4022343416038
:100770005478013C012C1CD90D042D0CA024E40557
:100780002C431C4384620D0CD02424062C431C43B0
:100790008462D478002C22D15B031CD59378012B82
:1007A0001ED0416117E00023D7E7C024E4022343B1
:1007B000DDE70D4C2340DFE741600C04240CA0234F
:1007C000DB05234383620C0CD0231B062343836287
:1007D000D378002B03D15378013B012B02D930BDD4
:1007E0008161F8E78160FAE7FFFFFBFF10B50A00BF
:1007F000C1090023002904D14309DB0105498C46C6
:1008000063441F242040012181401800024B984777
:1008100010BDC0460044004145070000704700007D
:1008200010B5054B9847054B9847054B9847054B26
:100830009847054B984710BDE5040000BD03000034
:100840001D0800001D0100001D080000FEE700005B
:1008500010B51A4A1A4B9A4211D01A00194B9A42F3
:100860000DD2194A03339B1A9B0801339B000022C7
:10087000134812498C58845004329A42FAD1134AD0
:10088000134B9A420AD2D34311495B1803218B437D
:1008900004339B18002102C29342FCD10D4AFF2170
:1008A0000D4B8B4393600D4A53687F390B43536064
:1008B0000B4B98470B4B9847FEE7C046DC090000FE
:1008C000000000200400002004000020040000209C
:1008D000A000002000ED00E000000000004000410A
:1008E000550900001909000010B584B001AC2000C2
:1008F000074B98470F230193002363600133237252
:100900000233E37221000F20024B984704B010BD60
:10091000890100009D01000010B50A4B98470A4B61
:1009200098470A498022120209488024E40101E024
:1009300044610A610B691342FCD0036A1342F7D089
:100940008461F6E721080000E90800000018004073
:100950000044004170B500260C4D0D4C641BA410E2
:10096000A64209D1002600F029F80A4D0A4C641B62
:10097000A410A64205D170BDB300EB5898470136CC
:10098000EEE7B300EB5898470136F2E7C8090000DC
:10099000C8090000C8090000CC090000800400005C
:1009A0006004000060040000D00400007204000035
:1009B0008E040000640400009C040000F8B5C046EA
:1009C000F8BC08BC9E467047CD000000F8B5C04694
:0C09D000F8BC08BC9E467047A500000063
:0409DC000100000016
:0400000300000851A0
:00000001FF
